:020000040000FA
:100000000C94CB170C94F5170C94F5170C94F5176A
:100010000C94F5170C94F5170C94F5170C94F51730
:100020000C94F5170C94D0920C94F5170C94F517CA
:100030000C94F5170C945C410C94F5170C94F5177F
:100040000C94F5170C94686A0C9486920C94F5172E
:100050000C94EA380C94F5170C94F5170C94F517DA
:100060000C94F5170C94F5170C94F5170C94F517E0
:100070000C94F5170C94F5170C94F5170C94F517D0
:100080000C94F5170C94F5170C94F5173F8C428CD3
:10009000358C398C598C598C468C4A8C508C548CAC
:1000A000749179917E918891B691B69192919A913D
:1000B000A291AC91F4CFBBCEF2CE30D0F2CEF2CE44
:1000C000F2CEF2CEF2CEF2CEF2CEF2CEF2CEF2CE30
:1000D000F2CEF2CEF2CEF2CEF2CEF2CEF2CEF2CE20
:1000E000F2CEF2CEF2CEF2CEF2CEF2CEF2CEF2CE10
:1000F0002AD0F2CEF2CEF2CEF2CEF2CEF2CEF2CEC6
:10010000F2CE03D0F2CEF2CEF2CEF2CEF2CEF2CEDC
:10011000F2CEF2CEF2CEF2CE47D0EFCE084AD73BA7
:100120003BCE016E84BCBFFDC12F3D6C74319ABDC6
:1001300056833DDA3D00C77F11BED9E4BB4C3E91EA
:100140006BAAAABE000000803F05A84CCDB2D44ED9
:10015000B93836A9020C50B9918688083CA6AAAADB
:100160002ABE000000803F004E414E494E4954597E
:10017000494E46CDCCCC3D0AD7233C17B7D1387772
:10018000CC2B329595E6241FB14F0A000020410088
:1001900000C84200401C4620BCBE4CCA1B0E5AAED2
:1001A000C59D74434F4D4D554E49434154494F4EA3
:1001B0000044525952554E004552524F5253004935
:1001C0004E464F004543484F0047322F4733206289
:1001D000616420706172616D65746572730A0053A9
:1001E0006C6565702E2E2E00436C69636B20746FF6
:1001F00020726573756D652E2E2E004E6F206D6F0B
:1002000076652E00456E642066696C65206C6973A6
:10021000740A00426567696E2066696C65206C69C6
:1002200073740A00286E6F2066696C652900534458
:10023000207072696E74696E67206279746520003F
:100240004E6F74205344207072696E74696E670A31
:100250000043757272656E742066696C653A2000A1
:1002600046696C652064656C657465643A00446534
:100270006C6574696F6E206661696C65642C2046DC
:10028000696C653A20002569730025696D20256930
:1002900073002569682025696D202569730025692B
:1002A00064202569682025696D202569730025690A
:1002B0007920256964202569682025696D202569D4
:1002C00073005072696E742074696D653A2000C4C1
:1002D00001BF01B801B101A3016F66660044454248
:1002E00055473A004B494C4C45442E20004D313186
:1002F000332053006F6B00456E6465722D33204FC1
:1003000066662E002C20002C2000544845524D419A
:100310004C5F50524F54454354494F4E0041555441
:100320004F5245504F52545F53445F5354415455BC
:100330005300454D455247454E43595F5041525336
:10034000455200434153455F4C494748545F425230
:10035000494748544E45535300544F47474C455F17
:100360004C494748545300534F4654574152455FF8
:10037000504F574552004255494C445F50455243F7
:10038000454E54004C4556454C494E475F444154F8
:1003900041005A5F50524F4245004155544F4C4521
:1003A00056454C005052494E545F4A4F42005052FD
:1003B0004F4752455353004155544F5245504F52A9
:1003C000545F54454D5000564F4C554D455452497D
:1003D0004300454550524F4D0053455249414C5FF3
:1003E000584F4E5F584F4646004649524D5741526E
:1003F000455F4E414D453A4D61726C696E20312E1C
:10040000312E392E312028476974687562292053AE
:100410004F555243455F434F44455F55524C3A68F0
:10042000747470733A2F2F6769746875622E636FE6
:100430006D2F4D61726C696E4669726D7761726580
:100440002F4D61726C696E2050524F544F434F4C88
:100450005F56455253494F4E3A312E30204D41435D
:1004600048494E455F545950453A456E6465722D72
:10047000332045585452554445525F434F554E54CE
:100480003A3120555549443A6365646532613266B4
:100490002D343161322D343734382D396231322DDB
:1004A0006335356336326633363766660A002F2F7A
:1004B00020004D31343520533C696E6465783E2010
:1004C0006F7574206F662072616E67652028302D0D
:1004D00031290A00205400205200416363656C6595
:1004E000726174696F6E3A205000205A00205900E2
:1004F000580020204D61783A2000205A00205900F1
:10050000580020204D696E3A20004F6E20004F6643
:100510006600536F667420656E6473746F70733A0F
:10052000200020466C6F773A200000010F150E1254
:10053000FFFFFFFF16170E13FFFFFFFF03021A1442
:10054000FFFFFFFFFFFFFF0C04FFFFFF01000EFF97
:10055000FFFF0C190DFF1820643A0020693A0020B3
:10056000703A00496E76616C6964206578747275C2
:100570006465720A0043290A0061626C6564202880
:100580006D696E2074656D702000436F6C6420652A
:10059000787472756465732061726520004E6F20F7
:1005A00063617365206C696768740A004545505241
:1005B0004F4D204F4B0A00416374697665204578A2
:1005C0007472756465723A2000496E76616C696474
:1005D0002065787472756465720A004B494C4C450D
:1005E000442E200053544F505045442E200050724A
:1005F000696E7465722073746F70706564206475C1
:100600006520746F206572726F72732E2046697850
:1006100020746865206572726F7220616E64207547
:100620007365204D39393920746F20726573746198
:1006300072742E202854656D7065726174757265D0
:100640002069732072657365742E20536574206968
:100650007420616674657220726573746172746966
:100660006E67290A004E6F20436865636B73756D72
:100670002077697468206C696E65206E756D62659F
:10068000722C204C617374204C696E653A20004EC8
:100690006F20436865636B73756D2077697468209C
:1006A0006C696E65206E756D6265722C204C61738D
:1006B00074204C696E653A2000636865636B7375DE
:1006C0006D206D69736D617463682C204C61737467
:1006D000204C696E653A20004C696E65204E756D40
:1006E000626572206973206E6F74204C6173742090
:1006F0004C696E65204E756D6265722B312C204CF5
:10070000617374204C696E653A20004D31313000C0
:100710004D33310053442072656164206572726FFD
:10072000720A00446F6E65207072696E74696E673C
:100730002066696C650A0020496E76616C696420E8
:100740006578747275646572200000000000000016
:1007500000000000000000006B4300006B4300003D
:100760007A4357726974696E6720746F2066696C8A
:10077000653A20006F70656E206661696C65642C57
:100780002046696C653A20006F70656E206661696D
:100790006C65642C2046696C653A200046696C657E
:1007A0002073656C65637465640A002053697A651B
:1007B0003A200046696C65206F70656E65643A206A
:1007C000002066696C653A2000646F696E67006698
:1007D00072657368004E6F772000454E4420535574
:1007E00042524F5554494E450A002220706F730003
:1007F0002220706172656E743A2200535542524F46
:100800005554494E452043414C4C207461726765F4
:10081000743A22004B494C4C45442E2000747279A6
:10082000696E6720746F2063616C6C207375622D34
:1008300067636F64652066696C65732077697468A7
:1008400020746F6F206D616E79206C6576656C73B6
:100850002E204D4158206C6576656C2069733A00F6
:100860004572726F723A006F70656E206661696CD6
:1008700065642C2046696C653A200043616E6E6F9A
:1008800074206F70656E20737562646972200065F4
:1008900063686F3A0024F4D43050C38E20C2A24063
:1008A00017828B7011127A910D816CD90AA861E1BF
:1008B00008C7586607615143061E4B5D05C145A731
:1008C000041A411104093D9803713931034036DBA4
:1008D0000265339102D4305402802E1D02632CEE47
:1008E00001752AC501B028A001102781018F256458
:1008F000012B244B01E0223401AC211F018D200D7E
:1009000001801FFC00841EED00971DDF00B81CD283
:1009100000E61BC600201BBC00641AB200B219A876
:10092000000A19A0006A189900D117910040178B8E
:1009300000B516840031167E00B31579003A1573A0
:1009400000C7146F0058146A00EE13660088136322
:100950000025135E00C7125B006C1257001512547D
:1009600000C111510070114F0021114B00D61049E8
:10097000008D1047004610440002104200C00F4096
:1009800000800F3E00420F3C00060F3B00CB0E38AC
:1009900000930E37005C0E3500270E3400F30D3245
:1009A00000C10D3100900D3000600D2E00320D2D74
:1009B00000050D2C00D90C2B00AE0C2900850C294C
:1009C000005C0C2700350C27000E0C2600E80B24D9
:1009D00000C40B2400A00B23007D0B23005A0B2125
:1009E00000390B2100180B2000F80A1F00D90A1E3D
:1009F00000BB0A1E009D0A1D00800A1D00630A1C20
:100A000000470A1B002C0A1B00110A1A00F7091ADA
:100A100000DD091900C4091900AB09190092091772
:100A2000007B091800630917004C091600360916E7
:100A300000200916000A091500F5081500E0081441
:100A400000CC081400B8081400A40814009008137F
:100A5000007D0812006B08130058081200460812A7
:100A600000340811002308110012081100010811B8
:100A700000F0071000E0071000D0071000C00710BA
:100A800000B0070F00A107100091070E0083070FA9
:100A90000074070F0065070E0057070E0049070E88
:100AA000003B070D002E070E0020070D0013070D59
:100AB0000006070D00F9060C00ED060D00E0060C1F
:100AC00000D4060C00C8060C00BC060C00B0060CD6
:100AD00000A4060B0099060C008D060B0082060B85
:100AE0000077060B006C060B0061060A0057060B28
:100AF000004C060A0042060A0038060A002E060AC2
:100B00000024060A001A060A001006090007060A51
:100B100000FD050900F4050900EB050900E20509DF
:100B200000D9050900D0050900C7050900BE05095F
:100B300000B5050800AD050800A50509009C0508DD
:100B400000940508008C050800840508007C050851
:100B500000740508006C050700650508005D0507C1
:100B600000560508004E0507004705070040050828
:100B70000038050700310507002A0507002305078F
:100B8000001C050600160507000F050700080506EE
:100B90000002050700FB040600F5040700EE04064A
:100BA00000E8040600E2040700DB040600D50406A2
:100BB00000CF040600C9040600C3040600BD0406F5
:100BC00000B7040600B1040500AC040600A6040644
:100BD00000A00405009B040600950405009004068F
:100BE000008A04050085040500800406007A0405D7
:100BF0000075040500700405006B0405006604051B
:100C000000610405005C040500570405005204055A
:100C1000004D04050048040500430405003E04049B
:100C2000003A04050035040500300404002C0405D6
:100C30000027040400230405001E0404001A040411
:100C40000016040500110404000D04040009040545
:100C5000000404040000040400FC030400F803047E
:100C600000F4030400F0030400EC030400E80304B0
:100C700000E4030400E0030400DC030400D80304E0
:100C800000D4030400D0030400CC030400C8030311
:100C900000C503030024F404D9201BC40C5C0E9887
:100CA00004C4095F0265077101F405F900FB04B390
:100CB0000048048700C10369005803550003034539
:100CC00000BE023A008402310053022A00290225A4
:100CD0000004022000E4011C00C8011900AF011744
:100CE00000980114008401130071011000610110CB
:100CF0000051010E0043010D0036010B002B010BCA
:100D00000020010B00150109000C01090003010876
:100D100000FB000800F3000800EB000700E40006F9
:100D200000DE000600D8000600D2000600CC000558
:100D300000C7000500C2000500BD000400B90004A2
:100D400000B5000400B1000400AD000400A90004D7
:100D500000A5000300A20003009F0004009B000305
:100D60000098000300950002009300030090000328
:100D7000008D0002008B0003008800020086000244
:100D80000084000300810002007F0002007D000259
:100D9000007B00020079000200770001007600026B
:100DA000007400020072000100710002006F000276
:100DB000006D0001006C0002006A00010069000281
:100DC0000067000100660001006500010064000288
:100DD000006200010061000100600001005F00028C
:100DE000005D0001005C0001005B0001005A000191
:100DF0000059000100580001005700010056000191
:100E00000055000100540001005300000053000190
:100E1000005200010051000100500001004F00018C
:100E2000004E0000004E0001004D0001004C00018A
:100E3000004B0000004B0001004A00010049000186
:100E40000048000000480001004700010046000083
:100E5000004600010045000000450001004400017B
:100E60000043000000430001004200000042000176
:100E7000004100000041000100400001003F00006F
:100E8000003F0001003E0000003E0001003D000068
:100E9000003D0001003C0000003C0000003C00015F
:100EA000003B0000003B0001003A0000003A000156
:100EB000003900000039000100380000003800004F
:100EC0000038000100370000003700010036000044
:100ED000003600000036000100350000003500003B
:100EE000003500010034000000340000003400012F
:100EF0000033000000330000003300010032000026
:100F0000003200000032000100310000003100001A
:100F1000003100010030000000300000003000010E
:100F2000002F0000002F0000002F0000002F000104
:100F3000002E0000002E0000002E0001002D0000F9
:100F4000002D0000002D0000002D0001002C0000ED
:100F5000002C0000002C0000002C0001002B0000E1
:100F6000002B0000002B0000002B0001002A0000D5
:100F7000002A0000002A0000002A000100290000C9
:100F800000290000002900000029000000290001BC
:100F900000280000002800000028000000280000B1
:100FA00000280001002700000027000000270000A3
:100FB0000027000000270001002600000026000096
:100FC0000026000000260000002600010025000089
:100FD000002500000025000000250000002500007D
:100FE000002500010024000000240000002400006F
:100FF0000024000000240001002300000023000062
:101000000023000000230000002300000023000054
:101010000023000100220000002200000022000046
:101020000022000000220000002200010021000038
:10103000002100000021000000210000002100002C
:10104000002100000021000100200000002000001D
:101050000020000000200000002000000020000010
:101060000020000000200001001F0000001F000001
:10107000001F0000001F0000001F0000001F0000F4
:10108000001F0001001E0000001E0000001E0000E6
:10109000001E000000043700001E290000511B0044
:1010A000005810000010090000CC04000078020075
:1010B00000410100006265640A002C20737973749A
:1010C000656D2073746F707065642120486561746C
:1010D00065725F49443A20004578747275646572A0
:1010E000004D6F7665205A004D6F76652059004D92
:1010F0006F76652058005072657061726500496EA8
:10110000697469616C697A6520454550524F4D009C
:10111000436F6E74726F6C00526573746F726520EA
:101120006661696C73616665004C6F61642073650C
:101130007474696E677300496E697469616C697A69
:101140006520454550524F4D0053746F72652073B2
:10115000657474696E67730046696C616D656E7461
:10116000004D6F74696F6E0054656D7065726174C7
:10117000757265004D61696E004D33303320553115
:1011800020452569205325690050726568656174A2
:101190002041425320636F6E66005072656865613E
:1011A0007420504C4120636F6E66005049442041CA
:1011B00075746F74756E6500504944204175746F85
:1011C00074756E6500504944204175746F74756E76
:1011D00065005049442D44005049442D4400504975
:1011E000442D49005049442D49005049442D500098
:1011F0005049442D500020082046616374002008A7
:101200002046616374002008204D6178002008208A
:101210004D6178002008204D6178002008204D693C
:101220006E002008204D696E002008204D696E0078
:101230004F6666004F6E20004175746F74656D7067
:101240000046616E2073706565640046616E2073B0
:10125000706565640046616E207370656564004268
:1012600065640042656400426564004E6F7A7A6C82
:1012700065004E6F7A7A6C65004E6F7A7A6C650005
:10128000436F6E74726F6C0053746F726520736578
:101290007474696E6773004265640042656400425D
:1012A0006564004E6F7A7A6C65004E6F7A7A6C6571
:1012B000004E6F7A7A6C650046616E2073706565CA
:1012C000640046616E2073706565640046616E203F
:1012D00073706565640054656D70657261747572D4
:1012E00065004261627973746570205A00466C6FC4
:1012F0007700466C6F7700466C6F770046616E2012
:1013000073706565640046616E2073706565640086
:1013100046616E20737065656400426564004265D5
:101320006400426564004E6F7A7A6C65004E6F7A95
:101330007A6C65004E6F7A7A6C65005370656564EF
:10134000005370656564005370656564004D6169A4
:101350006E005072656865617420504C4120456E86
:1013600064005072656865617420504C412042658C
:1013700064005072656865617420504C4100507281
:1013800065706172650050726568656174204142E4
:101390005320456E64005072656865617420414257
:1013A0005320426564005072656865617420414253
:1013B000530050726570617265004D3432380050D0
:1013C00072656865617420504C4100436F6F6C64B6
:1013D0006F776E00507265686561742041425300FA
:1013E00044697361626C65207374657070657273B3
:1013F000004D38340053657420686F6D65206F664A
:101400006673657473004175746F20686F6D650055
:10141000473238004D6F76652061786973004D6101
:10142000696E004D6F76652058004D6F76652059C6
:10143000004D6F7665205A00457874727564657248
:10144000004D6F766520302E316D6D004D6F7665E5
:1014500020316D6D004D6F76652031306D6D004D22
:101460006F7665206178697300457874727564657C
:1014700072004D6F7665205A004D6F7665205900D9
:101480004D6F7665205800454550524F4D206461A0
:10149000746173697A65206572726F722E0A002911
:1014A0000A002062797465733B20637263200053E5
:1014B000657474696E67732053746F726564202855
:1014C00000290A002062797465733B2063726320EF
:1014D000002073746F7265642073657474696E673D
:1014E000732072657472696576656420280020280F
:1014F00063616C63756C6174656429210A00202145
:101500003D2000454550524F4D20435243206D69C8
:10151000736D61746368202D202873746F72656425
:101520002920002053697A653A2000496E64657865
:101530003A2000204D61726C696E3D563536290A9D
:101540000028454550524F4D3D00454550524F4DA6
:101550002076657273696F6E206D69736D61746357
:1015600068200048617264636F6465642044656646
:1015700061756C742053657474696E6773204C6F69
:10158000616465640A00F4010000F4010000640075
:101590000000881300000000FA430000FA43000036
:1015A000A0400000C8410000A0420000A04200008E
:1015B000C8430000BA424265642068656174696E80
:1015C00067206661696C65640048656174696E676F
:1015D000206661696C656400453120486561746905
:1015E0006E67206661696C65640048656174696E48
:1015F00067206661696C65640070012C01900127A9
:1016000001B0012201C0011D01F0011801100213F7
:101610000130020E016002090190020401C002FFC4
:10162000000003FA004003F5008003F000D003EB54
:10163000002004E6007004E100E004DC004005D76F
:1016400000C005D2004006CD00D006C8008007C308
:10165000003008BE00F008B900C009B400B00AAFFD
:1016600000B00BAA00D00CA500000EA000500F9BEC
:1016700000C01096005012910000148C00C0158715
:1016800000B0178200B0197D00D01B7800001E73D7
:101690000040206E0090226900F024640040275F23
:1016A0000090295A00E02B5500102E500020304B9E
:1016B0000010324600E033410090353C00103737CF
:1016C0000070383200A0392D00B03A2800A03B232A
:1016D00000603C1E00103D1900903D1400103E0FAC
:1016E00000703E0A00C03E0500003F0000403FFB86
:1016F000FF803FF6FFC03FF1FF453120544845527F
:101700004D414C2052554E415741590042454420CD
:10171000544845524D414C2052554E415741590075
:10172000546865726D616C2052756E6177617900E5
:101730004531204572723A204D415854454D500074
:101740004572723A204D415854454D50204245440F
:10175000004D415854454D50207472696767657259
:101760006564004531204572723A204D494E54451A
:101770004D50004572723A204D494E54454D50200F
:10178000424544004D494E54454D5020747269679E
:101790006765726564004D383420582059205A20FE
:1017A0004500202F002042403A0020403A00000629
:1017B0000900FE000000000001090008FE0000050D
:1017C000080806000040F0C88888987810050808C6
:1017D000060000C0F88888888888F8050505060096
:1017E000012030F830200508080600002070F8209D
:1017F000202020E00509090600FF2070A8A8B8886D
:101800008870200509090600FFE080C0B0A82830D4
:1018100028280509090600FFF8A88888888888A86C
:10182000F8050A0A0600FE205050505088A8A888E3
:101830007003030306000340A04025753A253032AB
:101840007500253032753A253032750025756420D3
:10185000253032753A253032750020202020202096
:10186000005A0059002020202000580009200000C4
:101870000000000000000000000000003FFFF0003A
:1018800000000000000000000000000038007000B0
:1018900000000000000000000000000030FC3000EC
:1018A00000000000000000000000000020FC10000C
:1018B0000000000000000000000000002078100080
:1018C00000000000000000000000000020301000B8
:1018D0000000000000000000000000002C00D0F814
:1018E0000180000C1FE00000082080002E31D0484D
:1018F000008000123FF00000041040002F7BD04316
:10190000C38CD0023FF00000041040002F7BD07148
:10191000249267CC3FF00000082080002E31D04197
:10192000249E40021FE00000104100002C00D0491E
:10193000249040121FE0000020820000203010FBA5
:10194000B3CEE00C3FF000002082000020781000B1
:10195000000000003FF000001041000020FC1000DB
:10196000000000003FF000000820800030FC300044
:10197000000000000FC000000000000038007000F0
:101980000000000007800000FFFFC0003FFFF000E4
:101990000000000003000000FFFFC0000000000086
:1019A0000000000000000000000000003FFFF00009
:1019B000000000000000000000000000380070007F
:1019C000000000000000000000000000338730002D
:1019D00000000000000000000000000027879000C9
:1019E0000000000000000000000000002F87D00071
:1019F0000000000000000000000000002F87D00061
:101A00000000000000000000000000002F03D0F8DC
:101A10000180000C1FE000000820800020301048EA
:101A2000008000123FF000000410400020781043B6
:101A3000C38CD0023FF000000410400020781071E9
:101A4000249267CC3FF00000082080002030104135
:101A5000249E40021FE00000104100002F03D049E7
:101A6000249040121FE00000208200002F87D0FB4E
:101A7000B3CEE00C3FF00000208200002F87D000A2
:101A8000000000003FF00000104100002787900098
:101A9000000000003FF00000082080003387300085
:101AA000000000000FC000000000000038007000BF
:101AB0000000000007800000FFFFC0003FFFF000B3
:101AC0000000000003000000FFFFC0000000005005
:101AD000726F7465637465642050696E0A002057E4
:101AE0003A004520436F6F6C696E672E2E2E0045BD
:101AF0002048656174696E672E2E2E0020573A00CB
:101B000042656420636F6F6C696E672E2E2E0042F3
:101B100065642068656174696E672E2E2E00205AF8
:101B20003A0020593A0020436F756E7420583A00ED
:101B300020453A00205A3A0020593A00583A003AD3
:101B4000004361703A0023646566696E6520444510
:101B50004641554C545F4B64200023646566696EB2
:101B6000652044454641554C545F4B692000236431
:101B70006566696E652044454641554C545F4B701F
:101B80002000504944204175746F74756E6520665D
:101B9000696E697368656421205075742074686586
:101BA000206C617374204B702C204B6920616E6433
:101BB000204B6420636F6E7374616E747320667261
:101BC0006F6D2062656C6F7720696E746F20436F54
:101BD0006E66696775726174696F6E2E680A00506F
:101BE0004944204175746F74756E65206661696C37
:101BF0006564212074696D656F75740A0045312034
:101C0000544845524D414C2052554E415741590080
:101C1000546865726D616C2052756E6177617900F0
:101C200045312048656174696E67206661696C653D
:101C3000640048656174696E67206661696C6564FB
:101C400000504944204175746F74756E652066615B
:101C5000696C6564212054656D706572617475727C
:101C60006520746F6F20686967680A00204B643ACA
:101C70002000204B693A2000204B703A20000A20B7
:101C8000436C617373696320504944200A002054F7
:101C9000753A2000204B753A2000206D61783A207B
:101CA00000206D696E3A200020643A2000206269AD
:101CB00061733A2000504944204175746F74756E09
:101CC00065206661696C6564212054656D7065727C
:101CD000617475726520746F6F20686967680A00A7
:101CE000504944204175746F74756E65207374613A
:101CF00072740A00504944204175746F74756E65A2
:101D0000206661696C656421204261642065787495
:101D10007275646572206E756D6265720A00486F37
:101D20006D652025732573257320666972737400B1
:101D30002066697273740A005A0059005800486F8F
:101D40006D6520004F666673657473206170706CFA
:101D5000696564004572723A20546F6F2066617243
:101D60002100546F6F206661722066726F6D207261
:101D700065666572656E636520706F696E740A00D2
:101D800000060900FE0701920321207FFF07FF07DD
:101D9000FF000000060000010707060200808080A7
:101DA00080800080030202060105A0A00507070647
:101DB00000005050F850F85050050707060000206A
:101DC00078A07028F020050707060000C0C8102082
:101DD0004098180507070600006090A040A890688A
:101DE000020303060104C040800307070601002028
:101DF00040808080402003070706010080402020AB
:101E000020408005050506000120A870A8200505D2
:101E1000050600012020F820200203030602FFC06F
:101E20004080050101060003F8020202060200C01C
:101E3000C0050505060001081020408005070706BB
:101E400000007088888888887003070706010040B2
:101E5000C040404040E00507070600007088087059
:101E60008080F8050707060000F81020100808F029
:101E700005070706000010305090F81010050707FE
:101E8000060000F880F008088870050707060000C3
:101E9000708080F0888870050707060000F8081039
:101EA0002020202005070706000070888870888899
:101EB000700507070600007088887808087002051A
:101EC00005060200C0C000C0C00206060602FFC030
:101ED000C000C0408004070706000010204080407A
:101EE0002010050303060002F800F80407070601A6
:101EF0000080402010204080050707060000708801
:101F0000081020002005070706000070880868A850
:101F1000A870050707060000708888F8888888057B
:101F20000707060000F08888F08888F00507070694
:101F3000000070888080808870050707060000F028
:101F40008888888888F0050707060000F88080F0F8
:101F50008080F8050707060000F88080F080808008
:101F6000050707060000708880B888887005070795
:101F7000060000888888F88888880107070602001C
:101F80008080808080808005070706000038101060
:101F9000101090600507070600008890A0C0A09070
:101FA00088050707060000808080808080F805078C
:101FB0000706000088D8A8888888880507070600D3
:101FC000008888C8A89888880507070600007088D8
:101FD0008888888870050707060000F08888F080E8
:101FE000808005070706000070888888A89068052B
:101FF0000707060000F08888F0A09088050707060C
:102000000000788080700808F0050707060000F8D7
:1020100020202020202005070706000088888888C7
:1020200088887005070706000088888888885020FF
:102030000507070600008888888888A850050707D4
:102040000600008888502050888805070706000091
:1020500088888850202020050707060000F808100F
:10206000204080F8030707060100E0808080808020
:10207000E00505050600018040201008030707065B
:102080000100E02020202020E005030306000420BA
:102090005088050101060000F802020206020580D0
:1020A00040050505060000700878887805070706D2
:1020B00000008080B0C88888F00505050600007023
:1020C00080808870050707060000080868988888DF
:1020D000780505050600007088F88070050707067A
:1020E00000003048E0404040400506060600FF7012
:1020F00088887808700507070600008080B0C888C7
:1021000088880107070602008000808080808003A5
:1021100008080601FF200020202020A04004070717
:10212000060000808090A0C0A09003070706010071
:10213000C04040404040E0050505060000D0A8A88A
:10214000A8A8050505060000B0C88888880505050B
:1021500006000070888888700506060600FFF08873
:1021600088F080800506060600FF788888780808D1
:10217000050505060000B0C880808005050506003D
:102180000070807008F00407070600004040E0403F
:1021900040403005050506000088888898680505D8
:1021A000050600008888885020050505060000887F
:1021B00088A8A8500505050600008850205088050D
:1021C00006060600FF888888780870050505060061
:1021D00000F8102040F80307070601002040408067
:1021E00040402001070706020080808080808080B8
:1021F000030707060100804040204040800502029E
:102200000600026890000000060000000021002483
:102210000027002A0000002200250028002B0000D3
:10222000002000230026002900020202020202020E
:102230000204040404040404040303030303030367
:102240000301010101010101010102040810204004
:102250008001020408102040800102040810204080
:1022600080804020100804020100000001020009E3
:102270000A0000000004030807000000000000003E
:102280000000000000000000004D3234004D3233E9
:1022900020257300556E6B6E6F776E20636F6D6DCA
:1022A000616E643A20220053442063617264206F9F
:1022B0006B0A006F70656E526F6F74206661696C97
:1022C00065640A00766F6C756D652E696E697420A1
:1022D0006661696C65640A00534420696E69742004
:1022E0006661696C0A0002FFFFFFFFEFFFFFFFFF5F
:1022F000FFFFFFFFFFFFEFEFFFFFFFFFFFFFFFFF0E
:10230000FFE7DFFFFFFFFFFFFFFFFFFFE7DFFFFF4D
:10231000FFFFFFFFFFFFFFE3DFFFFFFFFFFFFFFF09
:10232000FFFFF3CFFFFFFFFFFFFFFFFFE1E1CFFF65
:10233000FFFFFFFFFFFE78000003DDFFFFFFFFFE52
:10234000FF807E0001EEFFFFFFFFFE7DCFFC00005F
:10235000F77FFFFFFFFF8E060000007BBFFFFFFF40
:10236000FFC0000000007DDFFFFFFFFFFC01FE005B
:10237000003EE7FFFFFFFFFFFFFC00031F73FFFFAF
:10238000FFFFFFFFF800018F81FFFFFFFFFFFFE06E
:10239000000083F9FFFFFFFFFFFF00FC0000F0FFDC
:1023A000FFFFFFFFE00FFFC00000FFFFFFFFFE0386
:1023B000FFFFC00000FFFFFFFFFFFFFFF90000006D
:1023C000FFFFFFFFFFFFFFFC0007C0FFFFFFFFFF56
:1023D000FFFFFF0007E0FFFFFFFFFFFFFFFFE0073A
:1023E000F1FFFFFFFFFFFFFFFFFC07F9FFFFFFFF0C
:1023F000FFFFFFFFFF03F9FFFFFFFFFFFFFFFFFFEF
:1024000083F9FFFFFFFFFFFFFFFFFFC3FFFFFFFF9A
:10241000FFFFFFFFFFFFE1FFFFFFFFFFFFFFFFFFEA
:10242000FFF0BFFFFFFFFFFFFFFFFFFBF83FFFFFD6
:10243000FFFFFFFFFFFFF9F83FFFFFFFFFFFFFFF79
:10244000FF7EF0FFFFFFFFFFFFFFFFFF8E03FFFF99
:10245000FFFFFFFFFFFFFFE01FFFFFFFFFFFFFFF8B
:10246000FFFFFFFFFFFFFFFFFFFFFFFFFFFFFFFF7C
:10247000FFFFFFFFFFFFFFFFFFFF7FFFFFFFFF00EB
:10248000007FFFFFF87FFFFFFFFF80007FFFFFE07F
:102490007FFFFFFFFFC3FCFFFFFFF8FFFFFFFFFF12
:1024A000C3FCFFFFFFF8FFFFFFFFFF87FDFFFFFFFC
:1024B000F1FFFFFFFFFF87FFFFFFFFF1FFFFFFFFC0
:1024C000FF0FE7F30FFC23FC3FFFFFFF0FEF800739
:1024D000F003F01E007FFE1FCF8187C787C70C0067
:1024E0007FFE001FC7C78FC79F0F0CFFFE001F870F
:1024F0008F1F8F1F0F1FFFFC3F9F8F8F1F8E001E90
:102500003FFFFC7F3F0F1E3F1E3FFE3FFFF87FFF58
:102510001F1C3F1C7FFC7FFFF8FFFF1E1C7E1C7FE3
:10252000FC7FFFF0FFCE3E3C7E3C7FB8FFFFF0FF1C
:102530009E3C387C387E78FFFFE1FF3C7C787C78DD
:102540003CF1FFFFE1F8387878101801F1FFFF0047
:102550000060203C007C07807FFFFFFFFFFFFE1F25
:10256000FE1FFFFFFF1FFFFFFFFFFFFF60000000D8
:102570000001FF400000000000FF8000000000009C
:102580007F83CF00000C303F87FF80000C301F8618
:102590007980000C000F8C30C7838C30E78C30CFF3
:1025A000C7CC31F38C30DCECEC33B98C30D86C6CAC
:1025B00033198C30D06C0C33198C30D86C0C331927
:1025C0008C30DC6C0E3B198C30CF7C079F198C3023
:1025D000C77C038F1940000000000002600000006B
:1025E0000000061FFFFFFFFFFFF82020506C616E08
:1025F0006E657242756666657242797465733A20DB
:10260000002046726565204D656D6F72793A200035
:10261000436F6D70696C65643A20446563202031B6
:1026200020323032330A00207C20417574686F728A
:102630003A20287468697369736B65697468622CE1
:1026400020456E6465722D33290A00323032302DF8
:1026500030362D323000204C617374205570646127
:102660007465643A2000312E312E392E310A004D26
:1026700061726C696E0020536F66747761726520B9
:1026800052657365740A00205761746368646F67EC
:102690002052657365740A002042726F776E206F56
:1026A00075742052657365740A00204578746572EC
:1026B0006E616C2052657365740A00506F776572A5
:1026C00055700A0073746172740A006175746F2525
:1026D000692E67006572726F722077726974696E15
:1026E0006720746F2066696C650A00456E647374B8
:1026F0006F707320256320256320256320256300E8
:10270000205A3A0020593A0020583A00656E647306
:10271000746F7073206869743A2000446F6E65208E
:10272000736176696E672066696C652E0A004D32AA
:10273000390020286D6D2900204400204900202008
:102740004D33303120500050494420736574746912
:102750006E67733A0A00204600204200204800209D
:10276000204D3134352053004D6174657269616CC0
:102770002068656174757020706172616D65746543
:1027800072733A0A00205A0020590020204D32303E
:1027900036205800486F6D65206F66667365743A21
:1027A0000A00204500205A002059002058002054DB
:1027B0000020530020204D32303520510020453C70
:1027C0006D61785F655F6A65726B3E0020583C6D95
:1027D00061785F785F6A65726B3E20593C6D617805
:1027E0005F795F6A65726B3E205A3C6D61785F7AF3
:1027F0005F6A65726B3E00416476616E6365643A40
:1028000020513C6D696E5F7365676D656E745F74B2
:10281000696D655F75733E20533C6D696E5F6665DB
:102820006564726174653E20543C6D696E5F7472BC
:102830006176656C5F66656564726174653E0020F3
:10284000540020520020204D32303420500041638B
:1028500063656C65726174696F6E2028756E69744A
:10286000732F7332293A20503C7072696E745F6125
:102870006363656C3E20523C726574726163745F81
:10288000616363656C3E20543C74726176656C5F75
:10289000616363656C3E0A00204500205A002059A0
:1028A0000020204D3230312058004D6178696D751F
:1028B0006D20416363656C65726174696F6E202879
:1028C000756E6974732F7332293A0A00204500200F
:1028D0005A0020590020204D3230332058004D61DD
:1028E00078696D756D2066656564726174657320C5
:1028F00028756E6974732F73293A0A0020450020E9
:102900005A0020590020204D393220580053746558
:1029100070732070657220756E69743A0A00202009
:102920004D3230302044300A0020204D32303020EB
:1029300044002044697361626C65640A0046696CF6
:10294000616D656E742073657474696E67733A00A7
:1029500020204D3134392043203B20556E6974735B
:1029600020696E2043656C736975730A00202047E7
:102970003231202020203B00486F6D696E67206651
:1029800061696C65640054524947474552454400AB
:102990006F70656E003A20007A5F6D696E00795F36
:1029A0006D696E00785F6D696E005265706F72744C
:1029B000696E6720656E6473746F702073746174E0
:1029C00075730A0020746F6F206C6F6E67206578D6
:1029D00074727573696F6E2070726576656E74655A
:1029E000640A0020636F6C64206578747275736983
:1029F0006F6E2070726576656E7465640A007C3C4B
:102A00003E5E2B3D3F2F5B5D3B2C2A225C005665D2
:102A10002D6A65726B0056652D6A65726B0056658E
:102A20002D6A65726B00567A2D6A65726B00567A54
:102A30002D6A65726B0056792D6A65726B00567946
:102A40002D6A65726B0056792D6A65726B00567837
:102A50002D6A65726B0056782D6A65726B00567828
:102A60002D6A65726B004D6F74696F6E00457374EB
:102A70006570732F6D6D004573746570732F6D6D88
:102A8000005A73746570732F6D6D005A737465709E
:102A9000732F6D6D005973746570732F6D6D0059D0
:102AA00073746570732F6D6D005873746570732F38
:102AB0006D6D005873746570732F6D6D004D6F747C
:102AC000696F6E0053746570732F6D6D004A657287
:102AD0006B00416363656C65726174696F6E00566B
:102AE000656C6F6369747900436F6E74726F6C000C
:102AF00046696C2E204469612E0046696C2E204484
:102B000069612E004F6666004F6E20004520696E99
:102B1000206D6D3300436F6E74726F6C0043616E95
:102B20006E6F7420656E746572207375626469726D
:102B30003A2000022E2E000152656672657368000D
:102B40004D61696E00526573656E643A20006F6B6B
:102B50000020746F6F206C6F6E67206578747275DB
:102B600073696F6E2070726576656E7465640A00B5
:102B700020636F6C6420657874727573696F6E2062
:102B800070726576656E7465640A00627573793A71
:102B90002070617573656420666F7220696E707550
:102BA000740A00627573793A2070617573656420E8
:102BB000666F7220757365720A00627573793A20C8
:102BC00070726F63657373696E670A004B494C4C92
:102BD00045442E20004B494C4C206361757365645D
:102BE00020627920746F6F206D75636820696E6153
:102BF00063746976652074696D65202D2063757234
:102C000072656E7420636F6D6D616E643A20005062
:102C10006C65617365207265736574005052494E2E
:102C20005445522048414C544544005072696E74DA
:102C300065722068616C7465642E206B696C6C2809
:102C4000292063616C6C6564210A00656E7175658D
:102C50007565696E6720220000000000000000001A
:102C6000000000000000A0410000A04100008040E2
:102C7000000000005761726E696E673A20486F6D00
:102C8000696E672042756D702044697669736F7252
:102C9000203C20310A000202040000A0400000A0F5
:102CA000400000004000006B4300006B4300007ACE
:102CB00043FFFFFF4D61782054656D703A2031323B
:102CC00035004D696E2054656D703A2035005442D0
:102CD00065643A4550434F53203130304B004D61CD
:102CE000782054656D703A20323735004D696E207A
:102CF00054656D703A20350054303A204550434FAA
:102D000053203130304B005053553A2047656E65A3
:102D10007269630050726F746F636F6C3A20312E6A
:102D20003000426175643A20313135323030004D27
:102D3000656C7A692028437265616C697479290031
:102D40004578747275646572733A203100687474E2
:102D5000703A2F2F6D61726C696E66772E6F726795
:102D600000456E6465722D3300323032302D3036BE
:102D70002D323000312E312E392E31004D61726CE2
:102D8000696E00546865726D6973746F7273004286
:102D90006F61726420496E666F005072696E74656F
:102DA0007220496E666F004D61696E005654726103
:102DB00076206D696E005654726176206D696E00E2
:102DC0005654726176206D696E00566D696E0056BC
:102DD0006D696E00566D696E00566D617820450014
:102DE000566D6178204500566D6178204500566D1E
:102DF0006178205A00566D6178205A00566D6178CE
:102E0000205A00566D6178205900566D617820591E
:102E100000566D6178205900566D61782058005633
:102E20006D6178205800566D61782058004D6F74A0
:102E3000696F6E00416D6178204500416D617820B9
:102E40004500416D6178205A00416D6178205A003B
:102E5000416D6178205900416D6178205900416DC4
:102E60006178205800416D6178205800412D7472BE
:102E70006176656C00412D74726176656C00412D40
:102E80007265747261637400412D7265747261635E
:102E90007400416363656C00416363656C004D6F52
:102EA00074696F6E004572726F722077726974690F
:102EB0006E6720746F20454550524F4D210A0045E2
:102EC0006E6465722D332052656164792E005072F4
:102ED000696E74696E672E2E2E005072696E7420B2
:102EE000706175736564005072696E742061626F01
:102EF0007274656400496E69742E205344206361C6
:102F00007264004D3231004E6F2053442063617271
:102F100064004368616E6765205344206361726496
:102F2000004D3231005072696E742066726F6D20F0
:102F300053440053746F70207072696E7400526550
:102F400073756D65207072696E740041626F75747F
:102F5000205072696E7465720050617573652070DF
:102F600072696E7400436F6E74726F6C005072659C
:102F7000706172650054756E6500496E666F2073EE
:102F8000637265656E004261627973746570205A80
:102F9000000016D986E111241FBECFEFD0E4DEBFBA
:102FA000CDBF12E0A0E0B1E0EEE6FDED01E00BBF29
:102FB00002C007900D92A635B107D9F723E1A6E527
:102FC000B2E001C01D92AF30B207E1F717E1CAECE1
:102FD000D7E104C02197FE010E940EEEC93CD10743
:102FE000C9F70E94C5DC0C94AAEE0C9400002F9245
:102FF0003F924F925F926F927F928F929F92AF9289
:10300000BF92CF92DF92EF92FF920F931F93CF93D5
:10301000DF93CDB7DEB7CF55D1090FB6F894DEBF39
:103020000FBECDBF21E02093BC1280912D128D34B4
:1030300009F492C6843511F40C941D2C873411F0D8
:103040000C94612C20902B1230902C1234E023161B
:10305000310409F469C54CF437FC7AC68091090142
:1030600052E0251631047CF529C08AE52816310482
:1030700009F4AFC534F4ACE12A16310409F492C561
:1030800067C6BBE52B16310409F4A7C5ECE52E167F
:10309000310409F05DC626E5222E21E0322E3AECFD
:1030A000E32E32E1F32E25EC38E03DA72CA740EBD0
:1030B000C42E46E0D42E00E010E0CEC581110C9461
:1030C000682C0C94632C882311F40C94632C0E94BC
:1030D0006E8182E50E94E834882309F44FC10E9482
:1030E0006C346B017C0120E030E0A9010E9471E6A4
:1030F000882309F46FC12091C5083091C60840911A
:10310000C7085091C8082CA73DA74EA75FA74090BD
:10311000C9085090CA086090CB087090CC08809184
:10312000D6129091D712A091D812B091D91288AB33
:1031300099ABAAABBBAB2091DA123091DB12409174
:10314000DC125091DD122CAB3DAB4EAB5FAB9C0162
:10315000AD016CA57DA58EA59FA50E9471E681118C
:103160000BC02CA93DA94EA95FA9C301B2010E94C1
:1031700071E6882309F42EC111E032E023163104F0
:1031800009F010E020E030E0A901C701B6010E947B
:1031900071E6881F8827881F181759F080E090E093
:1031A000A0E8BFEB28968CAF9DAFAEAFBFAF28971E
:1031B0000AC020E030E040E85FE328962CAF3DAF46
:1031C0004EAF5FAF28972CA53DA54EA55FA568A97A
:1031D00079A98AA99BA90E94B4EA68AF79AF8AAF9E
:1031E0009BAFA30192016CA97DA98EA99FA90E9402
:1031F000B4EA6CAF7DAF8EAF9FAF28AD39AD4AADAD
:103200005BADCA01B9010E94D7E64B015C012CAD50
:103210003DAD4EAD5FADCA01B9010E94D7E69B013D
:10322000AC01C501B4010E94B5EA0E9463ED249689
:103230006CAF7DAF8EAF9FAF249720E030E040E0D1
:103240005FE30E94D7E64B015C019B01AC01C70123
:10325000B6010E94B4EA64966CAF7DAF8EAF9FAFAB
:103260006497A5019401C701B6010E94B5EA9B01CC
:10327000AC0164966CAD7DAD8EAD9FAD64970E9440
:10328000D7E66B017C0120E030E0A9010E9415ED3A
:1032900087FD07C0C701B6010E9463ED9B01AC0129
:1032A00003C020E030E0A90128966CAD7DAD8EAD65
:1032B0009FAD28970E94D7E64B015C016CAD7DADB8
:1032C0008EAD9FAD905824962CAD3DAD4EAD5FAD0B
:1032D00024970E94AFEBA50194010E94D7E66B01F1
:1032E0007C0128A939A94AA95BA96CA57DA58EA551
:1032F0009FA50E94B5EA20E030E040E05FE30E9435
:10330000D7E69B01AC01C701B6010E94B5EA2CA526
:103310003DA54EA55FA50E94B4EA6B017C012CA9D6
:103320003DA94EA95FA9C301B2010E94B5EA20E000
:1033300030E040E05FE30E94D7E66CA77DA78EA750
:103340009FA724962CAD3DAD4EAD5FAD249768ADE3
:1033500079AD8AAD9BAD0E94AFEBA50194010E94AF
:10336000D7E69B01AC016CA57DA58EA59FA50E940B
:10337000B5EAA30192010E94B4EA14C089E40E9454
:10338000E834882329F00E946C346B017C0103C06F
:10339000C12CD12C76018AE40E94E8348823E9F01C
:1033A0000E946C346CAB7DAB8EAB9FAB20E030E009
:1033B000A901C701B6010E9471E681111BC020E07E
:1033C00030E0A9016CA97DA98EA99FA90E9471E690
:1033D000811110C0E0E6F8E093C320E030E0A901DD
:1033E000C701B6010E9471E68823A1F31CAA1DAA99
:1033F0001EAA1FAAD701C601B0588CA79DA7AEA7C9
:10340000BFA72CA93DA94EA95FA9505828AB39AB3D
:103410004AAB5BAB9C01AD01BC01CD010E94D7E67C
:103420004B015C0128A939A94AA95BA9CA01B901C4
:103430000E94D7E69B01AC01C501B4010E94B5EA28
:103440000E9463ED68966CAF7DAF8EAF9FAF6897BB
:103450008091C5089091C608A091C708B091C8088E
:1034600088AF99AFAAAFBBAFA7019601BC01CD0150
:103470000E94B5EA28966CAF7DAF8EAF9FAF2897BC
:103480002091C9083091CA084091CB085091CC08CE
:1034900024962CAF3DAF4EAF5FAF24972CA93DA92A
:1034A0004EA95FA924966CAD7DAD8EAD9FAD2497DE
:1034B0000E94B5EA64966CAF7DAF8EAF9FAF649704
:1034C0008091D6129091D712A091D812B091D912B2
:1034D0002C968CAF9DAFAEAFBFAF2C9728962CAD7E
:1034E0003DAD4EAD5FAD2897BC01CD010E94B4EA61
:1034F0006B017C012091DA123091DB124091DC12D9
:103500005091DD1260962CAF3DAF4EAF5FAF60972C
:1035100064962CAD3DAD4EAD5FAD649760966CADDD
:103520007DAD8EAD9FAD60970E94B4EA4B015C010A
:103530008091CD089091CE08A091CF08B091D0088D
:103540006C968CAF9DAFAEAFBFAF6C979C01AD01D9
:103550006091DE127091DF128091E0129091E11281
:103560000E94B4EA6CAF7DAF8EAF9FAFA70196010A
:103570006CA57DA58EA59FA50E94D7E62B013C01D9
:10358000A501940168A979A98AA99BA90E94D7E6F7
:103590009B01AC01C301B2010E94B5EA2B013C01C1
:1035A000A50194016CA57DA58EA59FA50E94D7E6D7
:1035B0004B015C01A701960168A979A98AA99BA979
:1035C0000E94D7E69B01AC01C501B4010E94B4EA98
:1035D000A30192010E9434EB6B017C0120E030E0FA
:1035E000A9010E9471E687FF0AC02BED3FE049EC7C
:1035F00050E4C701B6010E94B5EA6B017C0192E07C
:103600002916310451F42BED3FE049EC50E4C70199
:10361000B6010E94B4EA6B017C0120E030E0A90110
:10362000C701B6010E9471E6811126C02C962CAD0F
:103630003DAD4EAD5FAD2C9768AD79AD8AAD9BAD1C
:103640000E9471E6811118C060962CAD3DAD4EAD63
:103650005FAD609724966CAD7DAD8EAD9FAD249728
:103660000E9471E6811108C07BEDC72E7FE0D72E46
:1036700079ECE72E70E4F72EA701960168966CAD01
:103680007DAD8EAD9FAD68970E94D7E64B015C0182
:1036900020E030E0A9016CAD7DAD8EAD9FAD0E9404
:1036A00071E68823D9F0A5019401C501B4010E94F7
:1036B000D7E64B015C012CAD3DAD4EAD5FADCA010F
:1036C000B9010E94D7E69B01AC01C501B4010E947B
:1036D000B5EA0E9463ED4B015C010DC020E030E0D3
:1036E000A901C501B4010E9415ED87FF04C0B7FA16
:1036F000B094B7F8B0942FE632E143E85AE3C5013D
:10370000B4010E9471E687FF02C00C94632CC501CE
:10371000B4010E9457EC0E9428EC22967FAF6EAF56
:103720002297DB01AB2B31F4E1E0F0E02296FFAF12
:10373000EEAF22974090D1085090D2086090D30805
:103740007090D40822962EAD3FAD2297B90180E04B
:1037500090E00E9476E64B015C019B01AC01C70141
:10376000B6010E94AFEB68AF79AF8AAF9BAFA501FE
:1037700094016CAD7DAD8EAD9FAD0E94AFEB6896B0
:103780006CAF7DAF8EAF9FAF6897A3019201609140
:10379000E2127091E3128091E4129091E5120E947E
:1037A000B4EAA50194010E94AFEBA0966CAF7DAF87
:1037B0008EAF9FAFA09728AD39AD4AAD5BADCA01C2
:1037C000B9010E94D7E620E030E040E05FE30E94CC
:1037D000D7E69B01AC0160E070E080E89FE30E94C7
:1037E000B4EA2C966CAF7DAF8EAF9FAF2C976C96E2
:1037F0008CAD9DADAEADBFAD6C9789879A87AB8719
:10380000BC874D865E866F86788A60911A017091BA
:103810001B01072E000C880B990B0E9478E6209163
:103820004D0130914E0140914F01509150010E9445
:10383000D7E62AE037ED43E25CE30E94D7E668A7CB
:1038400079A78AA79BA70E947A929B01AC01285373
:103850003F4F4F4F5F4F60962CAF3DAF4EAF5FAFC6
:1038600060974CA45DA46EA47FA422242394312CE1
:1038700039E13CAF22964EAD5FAD2297421553051C
:1038800009F41AC10E940A6C0E947A92DC01CB01F1
:1038900060962CAD3DAD4EAD5FAD6097821B930B36
:1038A000A40BB50BB7FD10C00E947A929B01AC012E
:1038B00028533F4F4F4F5F4F60962CAF3DAF4EAFF9
:1038C0005FAF60970E94A6BB3CAD31503CAF332345
:1038D00009F441C028A939A94AA95BA92C966CAD65
:1038E0007DAD8EAD9FAD2C970E94D7E66B017C011C
:1038F0009201A30168AD79AD8AAD9BAD0E94D7E678
:10390000A70196010E94B5EA7B018C019201A301F7
:103910002C966CAD7DAD8EAD9FAD2C970E94D7E6F9
:103920004B015C0128A939A94AA95BA968AD79AD09
:103930008AAD9BAD0E94D7E69B01AC01C501B401E5
:103940000E94B4EA2B013C01C701D80188AB99ABB6
:10395000AAABBBAB4DC0B10180E090E00E9476E61F
:1039600028AD39AD4AAD5BAD0E94D7E64B015C0195
:103970000E94AAEB6B017C01C501B4010E9455EDC8
:103980004B015C01A70196016CA57DA58EA59FA5A5
:103990000E94D7E62B013C012CA93DA94EA95FA9A5
:1039A000C501B4010E94D7E6A30192010E94B5EAC5
:1039B0002B013C01A50194016CA57DA58EA59FA5B9
:1039C0000E94D7E64B015C012CA93DA94EA95FA935
:1039D000C701B6010E94D7E69B01AC01C501B40145
:1039E0000E94B4EA68AB79AB8AAB9BAB49E14CAFC0
:1039F0009201A30128966CAD7DAD8EAD9FAD289749
:103A00000E94B5EA69837A838B839C8328A939A9AC
:103A10004AA95BA964966CAD7DAD8EAD9FAD6497F0
:103A20000E94B5EA6D837E838F83988768962CAD5C
:103A30003DAD4EAD5FAD689769857A858B859C8578
:103A40000E94B5EA69877A878B879C87A0962CAD00
:103A50003DAD4EAD5FADA0976D857E858F85988914
:103A60000E94B5EA6D877E878F87988B80912801A9
:103A7000882321F0CE0101960E9492B9E0905C0764
:103A800018A219A21AA21BA2CE0180966C018E0167
:103A9000085D1F4F9E01235F3F4FAE01475F5F4FA1
:103AA000BE016B5F7F4F4F970E941A9C882321F0C5
:103AB0009FEF291A390ADECEE0905C071CA21DA2F6
:103AC0001EA21FA2DE0194966D018E01085D1F4F9C
:103AD00022EE32E14EED52E16AED72E186ED92E1C5
:103AE0000E941A9C80E1E6EDF2E1A5ECB8E00190BD
:103AF0000D928A95E1F70C94632C0E94FB34F80137
:103B000084918F010F5F1F4F8111F7CFE9ECF1E036
:103B100084918F010F5F1F4F882311F40C94632C45
:103B20000E94FB34F801F4CF80E50E94E83488233A
:103B300029F00E9428346B017C0103C0C12CD12CD8
:103B4000760183E50E94E834882361F00E946C349A
:103B500020E030E04AE754E40E94D7E60E9428ECD7
:103B60006B017C010E948B948091740C811105C0C3
:103B700060E08FED91E00E94BC880E947A92C60EB0
:103B8000D71EE81EF91E0E947A92DC01CB018C1927
:103B90009D09AE09BF09B7FD02C00C94632C0E94B9
:103BA000A6BBF1CF8091B8088770873011F00C94D4
:103BB0006D2C8FE40E94E834882319F00E945C3455
:103BC00003C08FE40E949F3481110C94632C0C94E9
:103BD0006D2C10925A020C94632C20935A020C9470
:103BE000632C0E946C342B013C01133049F0F60128
:103BF00020813181428153810E94B4EA2B013C0132
:103C0000ACA5BDA52D913D914D915C91C301B20133
:103C10000E94B4EA4B015C012DEB37E346E855EB1B
:103C20000E9415ED87FD20C02DEB37E346E855E3F4
:103C3000C501B4010E9471E61816B4F01F5FB4E02C
:103C4000EB0EF11CECA5FDA53496FDA7ECA7F4E066
:103C5000CF0ED11C143039F1D1018D911D010E947C
:103C6000E834882359F3BDCF133051F44092D10882
:103C70005092D2086092D3087092D40801E0DECF4F
:103C8000A5019401F70160817181828193810E9475
:103C9000B5EAD7016D937D938D939C931397812FF4
:103CA0000E946A33CBCF002309F44EC020E030E0FD
:103CB000A9016091D1087091D2088091D3089091A8
:103CC000D4080E94B5EA2091FC113091FD11409179
:103CD000FE115091FF110E94D7E60E9422ED6093E1
:103CE0004403709345038093460390934703909158
:103CF000220380912303981719F00E942D9424C069
:103D00000E948B9480916F00982F927081FF05C064
:103D100080916F008D7F80936F004091440350919C
:103D20004503609146037091470340932F065093DB
:103D300030066093310670933206992329F0809102
:103D40006F00826080936F000E94507B0C94632C04
:103D50000E94EF8D0C94632C80912B1290912C1269
:103D60008237910509F448C70CF0D8C08B3491050F
:103D700009F419C50CF067C08831910509F495C2A2
:103D8000ACF58231910509F46CC6BCF497FF02C012
:103D90000C941A2C823091050CF4B7C1419711F0A4
:103DA0000C941A2C60E08BEF91E00E94BC885E9826
:103DB0005E9815985E980C94632C8531910509F4F2
:103DC00059C23CF4449711F00C941A2CE3E1F2E050
:103DD00013C28631910509F451C2479711F00C9432
:103DE0001A2CE0912912F0912A1252C28D319105BC
:103DF00011F40C94632CC4F48A31910509F464C263
:103E00000CF45CC28B31910509F46CC24C9711F033
:103E10000C941A2C40E060E08091291290912A12B3
:103E20000E941B3E0C94632C8F31910509F4D0C382
:103E30000CF4F0C28032910509F47EC38A9709F42C
:103E40007DC40C941A2C8836910509F4B8C4F4F595
:103E50008235910509F4FEC504F58D34910509F408
:103E6000AAC40CF4A4C48135910511F00C941A2C49
:103E70000E94EC6A0E94A2951092190D1092180DE2
:103E800068EE73E080E090E00E94BC8760E087EF1E
:103E900092E00E94BC880C94632C8435910509F44F
:103EA000E0C50CF4DAC58535910509F40DC68C35ED
:103EB000910511F00C941A2C16E5C12E11E0D12EAB
:103EC00000EFE02E01E1F02E10E017C68D369105CF
:103ED00009F477C59CF48A36910509F48FC50CF472
:103EE00030C58B36910509F4A5C58C36910511F0C6
:103EF0000C941A2C109245010C94632C8F3691056A
:103F000009F49BC40CF486C48037910509F4E8C415
:103F10008137910509F4E8C40C941A2C8D3D910564
:103F200011F40C94EE290CF062C08B39910509F460
:103F300023C51CF58737910509F451C774F48537FB
:103F4000910509F4F1C60CF0FEC68337910511F016
:103F50000C941A2CE9EEF3E08CC68937910509F42C
:103F600047C70CF43FC78C38910509F42DC581393A
:103F7000910509F442C70C941A2C8C3C910511F45C
:103F80000C94FD270CF5883C910511F40C947527D1
:103F90004CF48E3B910511F00C941A2C0E94A67DD6
:103FA0000C94632C893C910511F40C94C5278B3C2F
:103FB000910511F00C941A2C66E5E62E61E0F62EC0
:103FC00008EE1CE00C94EE278E3C910511F40C9445
:103FD000DD2814F40C947228833D910509F491C0F6
:103FE0008C3D910511F40C94E1290C941A2C8C3A17
:103FF00031E0930711F40C94FF280CF040C08E328E
:1040000051E0950711F40C945A2BDCF48232B1E0A4
:104010009B0711F40C94862A3CF4823E910511F41E
:104020000C945D2A0C941A2C8C32F1E09F0711F449
:104030000C94912A8D32914011F40C94BA2A0C946C
:104040001A2C833631E0930709F457C04CF48F32B1
:10405000914011F00C941A2C0E94CA760C94632C97
:104060008039A1E09A0711F40C94C42B8A3991404D
:1040700011F00C941A2C0E9491760C94632C883FBA
:10408000E1E09E0711F40C94D92BECF4853F21E07C
:10409000920711F40C94C72B4CF4843F914011F01B
:1040A0000C941A2C0E9486610C94632C863F51E07C
:1040B000950711F40C94CA2B873F914011F40C948E
:1040C000CD2B0C941A2C8B38B3E09B0711F40C9475
:1040D000632C3CF48C30924011F40C94FC2B0C9427
:1040E0001A2C803A23E0920709F465C2873E934078
:1040F00011F40C94052C0C941A2CE0E6F8E00C94C6
:10410000B12BEFE8F8E00C940229A0902912B090AE
:104110002A1280E50E94E834882359F00E9428344E
:104120006B017C0111E0672B682B692B31F410E0E7
:1041300004C010E0C12CD12C760183E50E94E83444
:10414000882311F40C94162E0E946C3420E030E089
:104150004AE754E40E94D7E60E9428EC6B017C01F8
:1041600011110BC0672B682B692B39F4A114B10412
:1041700021F0D5018C91811102C010E001C011E045
:104180000E948B94112329F061E0C5010E94F888F8
:1041900005C060E088EE91E00E94BC8883E08093D7
:1041A000BC1281E080936B07C114D104E104F104D7
:1041B000B1F00E947A92C60ED71EE81EF91E0E9428
:1041C0007A92DC01CB018C199D09AE09BF09B7FFBA
:1041D0000DC080916B0781110C941B2E07C080913C
:1041E0006B07882319F00E94A6BBF9CF0E94E3D683
:1041F00010926B070C94632C84918F010F5F1F4FFB
:10420000882321F00E94FB34F801F6CF10920D06AE
:1042100080EC93E00E9435AD8BE1E0ECF3E0DE0151
:10422000159601900D928A95E1F78091BE039091C9
:10423000BF039C838B8384E691E09A83898340E06B
:1042400050E0BE016F5F7F4F80E090E00E94563BE0
:10425000CE0101960E9426BBE4E0F2E084918F013A
:104260000F5F1F4F882311F40C94632C0E94FB34C2
:10427000F801F4CF0E9409900C94632C109268030B
:10428000109269030C94632C803209F410823196E9
:1042900080818111F9CF40E061E0809129129091F5
:1042A0002A120E941B3E0C94632C80916903811199
:1042B000209368030E94D2400C94632C10926803F0
:1042C0000E94F6400C94632C80916903882311F4BA
:1042D0000C94632C83E50E94E83481110C941F2E0A
:1042E0000C94632C83E40E949F34882309F450C00B
:1042F000E1E5F2E084918F010F5F1F4F882321F0E9
:104300000E94FB34F801F6CF80915B05811103C058
:10431000E4E2F2E012C0BE016F5F7F4F88E595E0F6
:104320000E94FCAB8E010F5F1F4FF80181918F013E
:10433000882349F10E94FB34F8CF84918F010F5FED
:104340001F4F882301F10E94FB34F801F6CF8FEC58
:10435000C82E82E0D82EE12CF12C20E08091EF11C4
:1043600090E00E2C02C0959587950A94E2F780FDA7
:1043700094C2BFEFEB1AFB0AE2E0CE0ED11CF5E0CF
:10438000EF16F10459F78AE00E94FB340C94632C79
:1043900080916903882339F080916803882319F09C
:1043A000EEE2F2E003C0E0E4F2E028C084918F0185
:1043B0000F5F1F4F882321F00E94FB34F801F6CFD6
:1043C0006091090670910A0680910B0690910C0687
:1043D0004AE00E94AA378FE20E94FB3460910506F2
:1043E0007091060680910706909108064AE00E94A7
:1043F000AA378AE00E94FB340C94632C84918F01CD
:104400000F5F1F4F882311F40C94632C0E94FB3420
:10441000F801F4CF80916903882311F40C94632C84
:1044200088E595E00E9481D488E595E00E94D7ABAD
:10443000109267031092660380916903882311F438
:104440000C94632C0091291210912A120E94E33AD5
:10445000B801CE0180960E945F3D8C01892B11F43A
:104460000C94632C68A179A16115710511F06C5F42
:104470007F4F19821C8222E0A801CE0101960E9482
:1044800086B1811102C0F12C14C0CE0101960E94A8
:10449000513A8823C1F361E0CE0101960E94E0AB5E
:1044A000009789F325EEDC012C931C820E9426D212
:1044B000F82ECE0101960E94F534F11003C0EEE60D
:1044C000F2E022C0E0E6F2E084917F01BFEFEB1A58
:1044D000FB0A882321F00E94FB34F701F5CFF80195
:1044E00081918F01882319F00E94FB34F8CF8AE074
:1044F0000E94FB341092090610920A0610920B06D5
:1045000010920C060C94632C84917F012FEFE21A19
:10451000F20A882321F00E94FB34F701F5CFD8017D
:104520008D918D01882319F00E94FB34F8CF8EE223
:104530000E94FB340C94632C8091680381110E94CB
:104540008B9480916903882311F40C94632C80E58B
:104550000E94E834882319F00E945C3403C080E58F
:104560000E949F34182F482F61E08091291290916A
:104570002A120E941B3E83E50E94E834882381F0C2
:104580000E943834AB01BC014093090650930A06DF
:1045900060930B0670930C0688E595E00E94EDAAE7
:1045A00080916903882319F081E0809368031111D9
:1045B0000C94632C7FCE8091291290912A1221E0D5
:1045C0002093670340E060E00E941B3E0C94632C44
:1045D0000E9483407B018C0120E831E541E050E0FE
:1045E0000E9478EAC9016DE671E00E94C7ED4B01B7
:1045F0005C01C801B70120E13EE040E050E00E94CC
:1046000078EACA01B90128E130E040E050E00E94B8
:1046100078EA762E672EC62ED72E9CE3292E312CD3
:10462000412C512CC801B701A20191010E9478EAE6
:10463000F62EE72ECA01B901A20191010E9478EA83
:10464000CB018E010F5F1F4F8114910499F0EF92FF
:10465000FF927F936F936F927F92BF92AF929F92E0
:104660008F928EEA92E09F938F931F930F930E94F5
:1046700009E613C0A114B104B1F0EF92FF927F9349
:104680006F936F927F92BF92AF928EE992E09F9369
:104690008F931F930F930E9409E60FB6F894DEBF25
:1046A0000FBECDBF30C0CD2879F0EF92FF927F933F
:1046B0006F936F927F9282E992E09F938F931F9303
:1046C0000F930E9409E6E9CF892B69F0EF92FF92E0
:1046D0007F936F938AE892E09F938F931F930F933A
:1046E0000E9409E6DACFEF92FF9286E892E09F936C
:1046F0008F931F930F930E9409E60F900F900F90D6
:104700000F900F900F9060E0C8010E94F888EFE8CA
:10471000F8E084917F019FEFE91AF90A882321F0DC
:104720000E94FB34F701F5CFB80182EC92E00E94C1
:10473000EB488AE00E94FB340C94632C83E50E94D2
:10474000E834882311F40C94632C0E944834E82E3A
:1047500080E50E94E834882311F40C94632C0E94B5
:104760004834182F87FF02C00C94632C89E40E9400
:10477000E834882341F00E945C3481110C94BB2EF4
:10478000EAE2F5E00BC089E40E949F34F6CF31964F
:10479000A5E0E735FA0711F40C94BB2E84911813A9
:1047A000F6CF0C94552E0E94D2400C94632C0E949C
:1047B000F6400C94632C0E940B410C94632C88E609
:1047C00090E00E94173881110C94632C8091EF11B6
:1047D00083FF02C00C94632C83E50E94E834882395
:1047E000A9F00E946C340E9421ECCB010E945788F2
:1047F0000E946C3420E030E04AEA52E40E9471E604
:10480000181624F00E940B410E94E3D60E9406492C
:104810000C94632C8EE40E94E834882311F40C94E9
:10482000632C0E9438346093DB027093DC02809327
:10483000DD029093DE020C94632C83E50E949F348A
:10484000882359F083E50E94E834882319F00E94F8
:10485000483401C080E08093EF11EFE8F8E08491E4
:104860008F010F5F1F4F811103C0EDEDF2E004C017
:104870000E94FB34F801F3CF84918F010F5F1F4F2B
:10488000882321F00E94FB34F801F6CF8091EF11CC
:1048900081115DCDE9EDF2E018C0BB24B394B20EF6
:1048A000222319F08CE20E94FB34F6018591949149
:1048B000FC0184918F010F5F1F4F882321F00E941C
:1048C000FB34F801F6CF2B2D54CD84918F010F5F6F
:1048D0001F4F882309F457CD0E94FB34F801F5CF10
:1048E00084EE92E00E9442BB83E50E94E83481118D
:1048F00003C0EFE8F8E00DC00E9448348D3320F487
:10490000809351010C94632C8CE3809351010C949F
:10491000632C84918F010F5F1F4F882321F00E9429
:10492000FB34F801F6CF4091510150E060E070E0B7
:104930008DEE92E00E9498488AE00E94FB340C942D
:10494000632C89E690E00E941738811111C0E4EFD2
:10495000F2E084918F010F5F1F4F882321F00E94A6
:10496000FB34F801F6CF0E945E688AE00E94FB34B7
:104970001092BC120C94D02E83E50E94E834882358
:1049800009F4A1C70E944834182F8D3308F01CE3A6
:104990001093C9120E947A926B017C01212F30E0A2
:1049A000A8EEB3E00E94A5EAC60ED71EE81EF91EC7
:1049B000C092C512D092C612E092C712F092C812ED
:1049C00082C70E947F7F7FC78091EF1183FD7BC7E5
:1049D00083E50E94E834882309F475C70E946C348B
:1049E0000E9421EC6E36710514F06EE670E0709353
:1049F0009907609398070E94A06A65C780E50E94A6
:104A0000E834811106C083E50E94E834882359F018
:104A100005C00E944834811156C7F5CF0E94383432
:104A20006F3F710510F06FEF70E07093190D609398
:104A3000180D49C780E50E94E834811105C0109225
:104A4000190D1092180D3FC70E943834672B09F0DA
:104A50003AC7F5CF1092590236C781E080935902C8
:104A600032C783E50E94E834882399F00E946C34B1
:104A700020E030E04AE754E40E94D7E60E9428ECA8
:104A800060935201709353018093540190935501A8
:104A90001AC788E50E949F3481110C94302E89E555
:104AA0000E949F3481110C94302E8AE50E949F341D
:104AB00081110C94302E85E40E949F3481110C9456
:104AC000302E0E94A295FFC683E50E949F34882362
:104AD00009F4F9C60E946C3420E030E04AE754E45F
:104AE0000E94D7E60E9428EC6093C1127093C21214
:104AF0008093C3129093C412E6C6D6018D916D01C6
:104B00000E949F34882309F46DC0133009F063C0FC
:104B10000E946C344B015C0120E030E040EA51E43B
:104B20000E9471E687FF4EC0A50194016091FC11BF
:104B30007091FD118091FE119091FF110E94AFEBD9
:104B40002B013C019B01AC016091C40C7091C50C20
:104B50008091C60C9091C70C0E94D7E66093C40C5C
:104B60007093C50C8093C60C9093C70CA30192015F
:104B70006091F40C7091F50C8091F60C9091F70C0B
:104B80000E94D7E66093F40C7093F50C8093F60CBA
:104B90009093F70C6091D40C7091D50C8091D60C49
:104BA0009091D70C0E9476E6A30192010E94D7E66D
:104BB0000E9428EC6093D40C7093D50C8093D60C93
:104BC0009093D70C8092FC119092FD11A092FE114F
:104BD000B092FF1107C00E946C34F70160837183AB
:104BE000828393831F5FF4E0EF0EF11C143009F011
:104BF00084CF0E94914967C60E948B9483E50E94EE
:104C0000E834882309F4A0C80E9438346230710562
:104C100009F09AC80E9474BF8BE50E94FB34609132
:104C2000B0127091B1128091B2129091B31242E021
:104C30000E9475384091B4125091B5126091B6122D
:104C40007091B71287E093E00E94B5484091B81286
:104C50005091B9126091BA127091BB1284E093E046
:104C60000E94B5488DE50E94FB348AE00E94FB3427
:104C70002AC684918F010F5F1F4F882321F00E9465
:104C8000FB34F801F6CF60E089ED93E00E94197BD8
:104C900061E082ED93E00E94197B61E087EC93E094
:104CA0000E94197B61E087EB93E00E94197B60E032
:104CB0008EEA93E00E94197B61E084EA93E00E940F
:104CC000197B60E08AE993E00E94197B60E082E949
:104CD00093E00E94197B60E084E893E00E94197BD6
:104CE00060E086E793E00E94197B60E087E693E04E
:104CF0000E94197B60E089E593E00E94197B60E0E7
:104D000083E493E00E94197B60E082E393E00E94D9
:104D1000197B60E08DE193E00E94197B61E08AE0FD
:104D200093E00E94197BCFC58091291290912A129D
:104D3000DC012C91222321F060E00E94F888C3C599
:104D40000E94E3D6C0C50091291210912A1283E077
:104D5000D12C40E08150E1F0F8019081292F2B7F88
:104D60002134C1F721812133A9F7913421F0953401
:104D700021F441E002C0DD24D39498012E5F3F4F1F
:104D800089012F5F3F4FD8019C919032C9F3E2CF48
:104D9000442369F0EFE8F8E084917F01BFEFEB1A5C
:104DA000FB0A882321F00E94FB34F701F5CFDD20B8
:104DB00069F0EEEAF4E084917F012FEFE21AF20A43
:104DC000882321F00E94FB34F701F5CFD8018D91A3
:104DD0008D01882309F4D7CA0E94FB34F7CF0E94C3
:104DE000289871C581E08093B7088093B6086BC599
:104DF0001092B7081092B60866C583E50E94E834A1
:104E0000882319F00E94383402C060E070E08B0102
:104E1000112702301105D4F0E0E6F8E084918F010B
:104E20000F5F1F4F811103C0E2EBF4E004C00E944A
:104E3000FB34F801F3CF84918F010F5F1F4F88235C
:104E400009F441C50E94FB34F801F5CF88E40E94C3
:104E5000E8348823A9F00E9438346A3A71053CF09E
:104E60006530B1E07B072CF064E071E002C06AEAD3
:104E700070E0F801EE0FFF1FE856F94F7183608371
:104E800086E40E94E8348823A9F00E943834F801AF
:104E9000EE0FFF1FE456F94F718360836F3F71057A
:104EA00019F014F06FEF70E077FF02C060E070E07F
:104EB0007183608382E40E94E834882309F403C587
:104EC0000E9438346530710534F06F3671052CF06E
:104ED0006EE670E002C065E070E0000F111FF8019F
:104EE000EC56F94F71836083EEC488EC90E00E9429
:104EF00017388111E8C484E40E949F34882309F4A0
:104F000041C00E946C346B017C0111E020E030E074
:104F1000A9010E9471E6811101C010E010930A12EC
:104F200020E030E0A901C701B6010E9471E68823A4
:104F300049F10E946C34E091D20624E0E29FF00136
:104F40001124EA5FFD4E608371838283938320E0A6
:104F500030E0A90160910612709107128091081249
:104F6000909109120E9471E681110CC080E090E0DE
:104F7000A0EEBFE38093061290930712A09308124D
:104F8000B09309120E9495939EC476E5E72E71E0D6
:104F9000F72E02EF12E1E2E0CE2EE3E1DE2ED701A2
:104FA0008D917D010E949F34882349F00E946C34CA
:104FB0000E9428ECF80160837183828393830C5FE5
:104FC0001F4FC016D10659F70E9436497CC40C5FAA
:104FD0001F4FFCE0083F1F0709F475C4D7018D91EE
:104FE0007D010E949F34882391F30E946C34F80164
:104FF0006083718382839383EACF83E50E94E834E0
:105000008823A1F00E946C346093E00C7093E10C53
:105010008093E20C9093E30C6093DC0C7093DD0CB6
:105020008093DE0C9093DF0C10E001C011E080E56E
:105030000E94E834882359F00E946C346093E00C9D
:105040007093E10C8093E20C9093E30C10E082E506
:105050000E94E834882359F00E946C346093E40C79
:105060007093E50C8093E60C9093E70C10E084E5D8
:105070000E94E834882359F00E946C346093DC0C61
:105080007093DD0C8093DE0C9093DF0C1CC4112315
:1050900009F419C44091E00C5091E10C6091E20CCC
:1050A0007091E30C8AED94E00E94B5484091E40CC5
:1050B0005091E50C6091E60C7091E70C87ED94E05F
:1050C0000E94B5484091DC0C5091DD0C6091DE0CE3
:1050D0007091DF0C84ED94E00E94B5488AE00E9454
:1050E000FB34F1C381E50E949F34882351F00E9474
:1050F00028346093FC0C7093FD0C8093FE0C90930D
:10510000FF0C83E50E949F34882351F00E946C3489
:105110006093140D7093150D8093160D9093170DD9
:1051200084E50E949F34882351F00E946C34609380
:10513000100D7093110D8093120D9093130D88E54F
:105140000E949F34882351F00E946C346093B80C05
:105150007093B90C8093BA0C9093BB0C89E50E94B4
:105160009F34882351F00E946C346093BC0C709380
:10517000BD0C8093BE0C9093BF0C8AE50E949F34B7
:10518000882351F00E946C346093C00C7093C10C62
:105190008093C20C9093C30C85E40E949F348823B3
:1051A00009F491C30E946C346093C40C7093C50CD5
:1051B0008093C60C9093C70C86C346E5C42E41E08D
:1051C000D42E59EBE52E58E0F52E10E0D6018D9146
:1051D0006D010E949F34882351F00E946C34F701C6
:1051E0006083718382839383812F0E946A331F5F60
:1051F000F4E0EF0EF11C133049F70C94A41E0E944A
:105200001A7C61C384918F010F5F1F4F882321F0A7
:105210000E94FB34F801F6CF83E50E949F34882377
:1052200021F00E945C3480932801E2E1F5E0849152
:105230008F010F5F1F4F882321F00E94FB34F8017C
:10524000F6CF80912801882319F0EAE0F5E002C04A
:10525000EEE0F5E084918F010F5F1F4F811103C0D5
:10526000E2E0F5E004C00E94FB34F801F3CF849142
:105270008F010F5F1F4F882321F00E94FB34F8013C
:10528000F6CF2091B0063091B1064091B206509110
:10529000B3066091BC067091BD068091BE069091E8
:1052A000BF060E94B5EAAB01BC0180E095E00E9418
:1052B000B5482091B4063091B5064091B60650919C
:1052C000B7066091C0067091C1068091C2069091A8
:1052D000C3060E94B5EAAB01BC018DEF94E00E94C9
:1052E000B5482091B8063091B9064091BA06509160
:1052F000BB066091C4067091C5068091C606909168
:10530000C7060E94B5EAAB01BC018AEF94E00E9497
:10531000B548E2EFF4E084918F010F5F1F4F8823BF
:1053200021F00E94FB34F801F6CF2091B0063091B5
:10533000B1064091B2065091B30660911C01709184
:105340001D0180911E0190911F010E94B5EAAB01E1
:10535000BC0180EF94E00E94B5482091B4063091E2
:10536000B5064091B6065091B70660912001709144
:10537000210180912201909123010E94B5EAAB01A5
:10538000BC018DEE94E00E94B5482091B8063091A2
:10539000B9064091BA065091BB0660912401709104
:1053A000250180912601909127010E94B5EAAB0169
:1053B000BC018AEE94E00E94B5488AE00E94FB346A
:1053C00082C283E50E94E834882309F47CC20E94EB
:1053D000383470931B0160931A0175C28DED90E013
:1053E0000E94173881116FC283E50E94E834811151
:1053F00003C0EFE8F8E03BC00091D20610E00E9445
:105400003834000F111FF801E85EFE4F718360838E
:105410008091D20690E08C01000F111F000F111F28
:105420009801295B3E4F7901880F991FFC01E85EC6
:10543000FE4F60817181072E000C880B990B0E9432
:1054400078E62AE037ED43E25CE30E94D7E6F80114
:10545000E455F94F20813181428153810E94D7E682
:10546000D7016D937D938D939C9313972CC2849158
:105470008F010F5F1F4F882321F00E94FB34F8013A
:10548000F6CF85E40E94FB348091D206805D0E94B5
:10549000FB34E091D206F0E0EE0FFF1FE85EFE4F16
:1054A0006081718182E295E00E94D24885E20E948B
:1054B000FB348AE00E94FB3406C280E50E949F34E0
:1054C000882309F400C20E9438346B017C0183E513
:1054D0000E94E834882321F00E9438348B0102C0F6
:1054E0000FEF1FEFC8010196039708F0ECC1D7FC3E
:1054F000EAC18C2DEAE2F5E09491891709F4D5C34D
:105500003196B5E0E735FB07B9F7D2C38AE50E94CB
:10551000E8348111F5C383E50E94E8348111F0C3BA
:10552000D2C183E50E94E834882319F00E94383400
:1055300002C064E071E079A368A380E50E94E834CA
:10554000882339F00E9438346938E3E17E0730F46B
:1055500002C068EE73E07A83698304C088E893E14F
:105560009A838983BE01605E7F4FCE0101960E94BF
:10557000223BA9C185E40E94E834811110C080E576
:105580000E949F34882391F00E946C3460938706B8
:10559000709388068093890690938A0607C00E94BC
:1055A0004834882361F3E0E6F8E071C089E40E94A2
:1055B0009F34882381F00E946C342CEA35EC47E25A
:1055C0005EE30E94D7E660938F0670939006809307
:1055D00091069093920684E40E949F34882381F080
:1055E0000E946C342CEA35EC47E25EE30E94AFEB9C
:1055F00060938B0670938C0680938D0690938E0635
:10560000EFE8F8E084918F010F5F1F4F882321F0AE
:105610000E94FB34F801F6CF40918706509188062E
:105620006091890670918A068FE595E00E94B548E1
:105630002CEA35EC47E25EE360918F0670919006AC
:1056400080919106909192060E94AFEBAB01BC0154
:105650008BE595E00E94B5482CEA35EC47E25EE325
:1056600060918B0670918C0680918D0690918E06CC
:105670000E94D7E6AB01BC0187E595E00E94B548E2
:105680008AE00E94FB341FC10E94FB34F801849120
:105690008F010F5F1F4F8111F7CFE3E6F5E0849193
:1056A0008F010F5F1F4F882309F40DC10E94FB3447
:1056B000F801F5CF83E50E949F34182F882371F0FD
:1056C0000E946C340E9421EC70934C0160934B015A
:1056D00021E0672B09F020E020931A0D80E50E945D
:1056E0009F34882359F020914B0130914C01232B9A
:1056F00011F00E945C3480931A0DE5C01111E3C0D3
:10570000EFE8F8E084918F010F5F1F4F882321F0AD
:105710000E94FB34F801F6CF80911A0D882319F00E
:1057200064E172E002C067E172E08AE895E00E94FD
:10573000EB4860914B0170914C0189E795E00E9424
:10574000D248E5E7F5E084918F010F5F1F4F882372
:1057500009F4B9C00E94FB34F801F5CF0E94FB3474
:10576000F80184918F010F5F1F4F8111F7CFEDE991
:10577000F5E084918F010F5F1F4F882309F4A3C0C8
:105780000E94FB34F801F5CF0E948B949CC00E94CC
:10579000786199C00E94FC5A96C083E50E949F34AC
:1057A000882321F00E945C3491E089270E945C9854
:1057B0008AC02093CF060E940B5C1092CF068823EC
:1057C00009F481C0EFE8F8E084918F010F5F1F4F6B
:1057D000811103C0ECEAF5E004C00E94FB34F8013B
:1057E000F3CF84918F010F5F1F4F882309F46BC0A3
:1057F0000E94FB34F801F5CF80916803882309F4F7
:1058000062C081E080936B035EC081E080930901F8
:105810001092B70C83E50E94E834882339F00E9487
:105820005C34811150C00E94ADBF4DC083E50E9421
:105830009F34F7CF0E94EF8D46C0F0902B120E944C
:105840008B94FF2029F1EFE8F8E084918F010F5F3E
:105850001F4F882321F00E94FB34F801F6CF84E526
:105860000E94FB346F2D70E080E090E04AE00E94DF
:10587000AA3780E20E94FB34E9ECF5E084918F01C5
:105880000F5F1F4F8823F9F00E94FB34F801F6CF19
:1058900010925C07EFE8F8E084918F010F5F1F4FD3
:1058A000882321F00E94FB34F801F6CF60915C0759
:1058B00070E087EB95E00E94D2488AE00E94FB34BA
:1058C00002C00E94EF8D1092BC120E9490BF68C26D
:1058D0000E946E810E945FBEF6CF0E948B948091E1
:1058E0004D0190914E01A0914F01B09150018093D4
:1058F0005D0290935E02A0935F02B093600280917C
:105900001A0190911B0190935C0280935B0284E6E4
:1059100090E090931B0180931A0111E01093B70857
:1059200088E50E949F34282E89E50E949F34382EF6
:105930008AE50E949F34A82E211005C0311005C0B1
:10594000BA2CB12605C0311002C0B12C01C0BA2C4E
:1059500080E1E5ECF8E0A6EDB2E101900D928A95C8
:10596000E1F782E50E94E834882369F00E946C34F4
:105970002B013C0120E030E0A9010E9471E6882360
:1059800009F43FC006C0412C512C50EA652E50E46A
:10599000752EB11005C0211003C0332009F41DC1BC
:1059A0004092DE125092DF126092E0127092E11289
:1059B000A30192016091CD087091CE088091CF082B
:1059C0009091D0080E9471E687FF1BC019821A824D
:1059D0001B821C822091C9083091CA084091CB08D3
:1059E0005091CC086091C5087091C6088091C70895
:1059F0009091C808FE0131966F01830172010E94E7
:105A00007832B1100DC0211003C03110E1C0E5C0E3
:105A1000311006C080E00E9424BABB20B1F3D8C088
:105A20001092C9081092CA081092CB081092CC08A4
:105A30001092C5081092C6081092C7081092C808A4
:105A40000E941E34E1EBFCE2249128AFE5EAFCE27F
:105A5000C590D590E590F490E9EAFCE24590559028
:105A600065907490A7019601C301B2010E9471E68E
:105A700087FF05C0A7019601C301B20104C0A301BD
:105A80009201C701B6010E94AFEB6CAB7DAB8EAB50
:105A90009FABE8E6FCE285919591A591B4918CA726
:105AA0009DA7AEA7BFA7E4E6FCE2259135914591FD
:105AB000549128AB39AB4AAB5BABBC01CD010E9422
:105AC00015ED18162CF498A809A91AA98BA804C0DA
:105AD0009CA40DA51EA58FA42CA93DA94EA95FA924
